{
  "_format": "hh-sol-artifact-1",
  "contractName": "LeafLongTermVesting",
  "sourceName": "contracts/LeafLongTermVesting.sol",
  "abi": [
    {
      "inputs": [
        {
          "internalType": "contract IERC1363",
          "name": "acceptedToken_",
          "type": "address"
        }
      ],
      "stateMutability": "nonpayable",
      "type": "constructor"
    },
    {
      "anonymous": false,
      "inputs": [
        {
          "indexed": false,
          "internalType": "address",
          "name": "user",
          "type": "address"
        },
        {
          "indexed": false,
          "internalType": "uint256",
          "name": "amount",
          "type": "uint256"
        }
      ],
      "name": "Lock",
      "type": "event"
    },
    {
      "anonymous": false,
      "inputs": [
        {
          "indexed": true,
          "internalType": "address",
          "name": "sender",
          "type": "address"
        },
        {
          "indexed": false,
          "internalType": "uint256",
          "name": "amount",
          "type": "uint256"
        },
        {
          "indexed": false,
          "internalType": "bytes",
          "name": "data",
          "type": "bytes"
        }
      ],
      "name": "TokensApproved",
      "type": "event"
    },
    {
      "anonymous": false,
      "inputs": [
        {
          "indexed": true,
          "internalType": "address",
          "name": "operator",
          "type": "address"
        },
        {
          "indexed": true,
          "internalType": "address",
          "name": "sender",
          "type": "address"
        },
        {
          "indexed": false,
          "internalType": "uint256",
          "name": "amount",
          "type": "uint256"
        },
        {
          "indexed": false,
          "internalType": "bytes",
          "name": "data",
          "type": "bytes"
        }
      ],
      "name": "TokensReceived",
      "type": "event"
    },
    {
      "anonymous": false,
      "inputs": [
        {
          "indexed": false,
          "internalType": "address",
          "name": "user",
          "type": "address"
        },
        {
          "indexed": false,
          "internalType": "uint256",
          "name": "amount",
          "type": "uint256"
        }
      ],
      "name": "Unlock",
      "type": "event"
    },
    {
      "inputs": [],
      "name": "acceptedToken",
      "outputs": [
        {
          "internalType": "contract IERC1363",
          "name": "",
          "type": "address"
        }
      ],
      "stateMutability": "view",
      "type": "function"
    },
    {
      "inputs": [
        {
          "internalType": "address",
          "name": "vestor",
          "type": "address"
        }
      ],
      "name": "getVestingInfo",
      "outputs": [
        {
          "internalType": "uint256[]",
          "name": "ids",
          "type": "uint256[]"
        },
        {
          "internalType": "uint256[]",
          "name": "lockFrom",
          "type": "uint256[]"
        },
        {
          "internalType": "uint256[]",
          "name": "releasedAmount",
          "type": "uint256[]"
        },
        {
          "internalType": "uint256[]",
          "name": "relesableAmount",
          "type": "uint256[]"
        },
        {
          "internalType": "uint256[]",
          "name": "totalAmount",
          "type": "uint256[]"
        }
      ],
      "stateMutability": "view",
      "type": "function"
    },
    {
      "inputs": [
        {
          "internalType": "uint256",
          "name": "offset",
          "type": "uint256"
        },
        {
          "internalType": "uint256",
          "name": "limit",
          "type": "uint256"
        }
      ],
      "name": "getVestingInfos",
      "outputs": [
        {
          "internalType": "address[]",
          "name": "addresses",
          "type": "address[]"
        },
        {
          "internalType": "uint256[]",
          "name": "ids",
          "type": "uint256[]"
        },
        {
          "internalType": "uint256[]",
          "name": "lockFrom",
          "type": "uint256[]"
        },
        {
          "internalType": "uint256[]",
          "name": "releasedAmount",
          "type": "uint256[]"
        },
        {
          "internalType": "uint256[]",
          "name": "releasableAmount",
          "type": "uint256[]"
        },
        {
          "internalType": "uint256[]",
          "name": "totalAmount",
          "type": "uint256[]"
        }
      ],
      "stateMutability": "view",
      "type": "function"
    },
    {
      "inputs": [],
      "name": "getVestorsLength",
      "outputs": [
        {
          "internalType": "uint256",
          "name": "",
          "type": "uint256"
        }
      ],
      "stateMutability": "view",
      "type": "function"
    },
    {
      "inputs": [
        {
          "internalType": "address",
          "name": "sender",
          "type": "address"
        },
        {
          "internalType": "uint256",
          "name": "amount",
          "type": "uint256"
        },
        {
          "internalType": "bytes",
          "name": "data",
          "type": "bytes"
        }
      ],
      "name": "onApprovalReceived",
      "outputs": [
        {
          "internalType": "bytes4",
          "name": "",
          "type": "bytes4"
        }
      ],
      "stateMutability": "nonpayable",
      "type": "function"
    },
    {
      "inputs": [
        {
          "internalType": "address",
          "name": "operator",
          "type": "address"
        },
        {
          "internalType": "address",
          "name": "sender",
          "type": "address"
        },
        {
          "internalType": "uint256",
          "name": "amount",
          "type": "uint256"
        },
        {
          "internalType": "bytes",
          "name": "data",
          "type": "bytes"
        }
      ],
      "name": "onTransferReceived",
      "outputs": [
        {
          "internalType": "bytes4",
          "name": "",
          "type": "bytes4"
        }
      ],
      "stateMutability": "nonpayable",
      "type": "function"
    },
    {
      "inputs": [
        {
          "internalType": "bytes4",
          "name": "interfaceId",
          "type": "bytes4"
        }
      ],
      "name": "supportsInterface",
      "outputs": [
        {
          "internalType": "bool",
          "name": "",
          "type": "bool"
        }
      ],
      "stateMutability": "view",
      "type": "function"
    },
    {
      "inputs": [
        {
          "internalType": "address",
          "name": "",
          "type": "address"
        },
        {
          "internalType": "uint256",
          "name": "",
          "type": "uint256"
        }
      ],
      "name": "vestings",
      "outputs": [
        {
          "internalType": "uint256",
          "name": "lockFrom",
          "type": "uint256"
        },
        {
          "internalType": "uint256",
          "name": "releasedAmount",
          "type": "uint256"
        },
        {
          "internalType": "uint256",
          "name": "totalAmount",
          "type": "uint256"
        }
      ],
      "stateMutability": "view",
      "type": "function"
    },
    {
      "inputs": [
        {
          "internalType": "uint256",
          "name": "",
          "type": "uint256"
        }
      ],
      "name": "vestors",
      "outputs": [
        {
          "internalType": "address",
          "name": "",
          "type": "address"
        }
      ],
      "stateMutability": "view",
      "type": "function"
    },
    {
      "inputs": [],
      "name": "withdraw",
      "outputs": [],
      "stateMutability": "nonpayable",
      "type": "function"
    }
  ],
  "bytecode": "0x60806040523480156200001157600080fd5b50604051620021d9380380620021d9833981016040819052620000349162000182565b806001600160a01b038116620000a65760405162461bcd60e51b815260206004820152602d60248201527f4552433133363350617961626c653a206163636570746564546f6b656e20697360448201526c207a65726f206164647265737360981b606482015260840160405180910390fd5b6040516301ffc9a760e01b815263b0202a1160e01b60048201526001600160a01b038216906301ffc9a79060240160206040518083038186803b158015620000ed57600080fd5b505afa15801562000102573d6000803e3d6000fd5b505050506040513d601f19601f8201168201806040525081019062000128919062000159565b6200013257600080fd5b600080546001600160a01b0319166001600160a01b039290921691909117905550620001ab565b6000602082840312156200016b578081fd5b815180151581146200017b578182fd5b9392505050565b60006020828403121562000194578081fd5b81516001600160a01b03811681146200017b578182fd5b61201e80620001bb6000396000f3fe608060405234801561001057600080fd5b506004361061009e5760003560e01c80637b04a2d0116100665780637b04a2d01461013257806388a7ca5c1461015e578063bd84477d14610171578063d5c0efb41461019f578063fb897ce4146101b057600080fd5b806301ffc9a7146100a35780631c07b068146100cb5780633ccfd60b146100f0578063451c3d80146100fa57806357f887ab1461011f575b600080fd5b6100b66100b1366004611ba7565b6101d4565b60405190151581526020015b60405180910390f35b6100de6100d9366004611be7565b610226565b6040516100c296959493929190611c8a565b6100f861070c565b005b6000546001600160a01b03165b6040516001600160a01b0390911681526020016100c2565b61010761012d366004611bcf565b610860565b610145610140366004611a6c565b61088a565b6040516001600160e01b031990911681526020016100c2565b61014561016c3660046119d8565b61091b565b61018461017f366004611a41565b6109b9565b604080519384526020840192909252908201526060016100c2565b6002546040519081526020016100c2565b6101c36101be3660046119bc565b6109fb565b6040516100c2959493929190611d3e565b60006001600160e01b03198216632229f29760e21b148061020557506001600160e01b031982166307b04a2d60e41b145b8061022057506301ffc9a760e01b6001600160e01b03198316145b92915050565b606080606080606080600061023b8989610e43565b9050806001600160401b0381111561026357634e487b7160e01b600052604160045260246000fd5b60405190808252806020026020018201604052801561028c578160200160208202803683370190505b509650806001600160401b038111156102b557634e487b7160e01b600052604160045260246000fd5b6040519080825280602002602001820160405280156102de578160200160208202803683370190505b509550806001600160401b0381111561030757634e487b7160e01b600052604160045260246000fd5b604051908082528060200260200182016040528015610330578160200160208202803683370190505b509450806001600160401b0381111561035957634e487b7160e01b600052604160045260246000fd5b604051908082528060200260200182016040528015610382578160200160208202803683370190505b509350806001600160401b038111156103ab57634e487b7160e01b600052604160045260246000fd5b6040519080825280602002602001820160405280156103d4578160200160208202803683370190505b509250806001600160401b038111156103fd57634e487b7160e01b600052604160045260246000fd5b604051908082528060200260200182016040528015610426578160200160208202803683370190505b5091506000895b6104378a8c611eab565b8110156106ff576002548110156106ed5760006002828154811061046b57634e487b7160e01b600052603260045260246000fd5b60009182526020822001546001600160a01b031691505b6001600160a01b0382166000908152600160205260409020548110156106ea57818b85815181106104c357634e487b7160e01b600052603260045260246000fd5b60200260200101906001600160a01b031690816001600160a01b031681525050808a858151811061050457634e487b7160e01b600052603260045260246000fd5b60200260200101818152505060016000836001600160a01b03166001600160a01b03168152602001908152602001600020818154811061055457634e487b7160e01b600052603260045260246000fd5b90600052602060002090600302016000015489858151811061058657634e487b7160e01b600052603260045260246000fd5b60200260200101818152505060016000836001600160a01b03166001600160a01b0316815260200190815260200160002081815481106105d657634e487b7160e01b600052603260045260246000fd5b90600052602060002090600302016001015488858151811061060857634e487b7160e01b600052603260045260246000fd5b60200260200101818152505061061e8183610f53565b87858151811061063e57634e487b7160e01b600052603260045260246000fd5b60200260200101818152505060016000836001600160a01b03166001600160a01b03168152602001908152602001600020818154811061068e57634e487b7160e01b600052603260045260246000fd5b9060005260206000209060030201600201548685815181106106c057634e487b7160e01b600052603260045260246000fd5b60209081029190910101526106d6600185611eab565b9350806106e281611f45565b915050610482565b50505b806106f781611f45565b91505061042d565b5050509295509295509295565b3360008181526001602052604081205490805b828110156107f05760006107338286610f53565b905080156107dd576001600160a01b0385166000908152600160205260409020805461079b90839083908690811061077b57634e487b7160e01b600052603260045260246000fd5b9060005260206000209060030201600101546110aa90919063ffffffff16565b8184815481106107bb57634e487b7160e01b600052603260045260246000fd5b60009182526020909120600160039092020101556107d984836110aa565b9350505b50806107e881611f45565b91505061071f565b5061081883826108086000546001600160a01b031690565b6001600160a01b031691906110b6565b604080516001600160a01b0385168152602081018390527f6381d9813cabeb57471b5a7e05078e64845ccdb563146a6911d536f24ce960f191015b60405180910390a1505050565b6002818154811061087057600080fd5b6000918252602090912001546001600160a01b0316905081565b600080546001600160a01b0316336001600160a01b0316146108c75760405162461bcd60e51b81526004016108be90611dec565b60405180910390fd5b836001600160a01b03167ffc47604465ac19edea172256bab2469184c3a6770701541635cf84241c2f24b48484604051610902929190611e3f565b60405180910390a2506307b04a2d60e41b5b9392505050565b600080546001600160a01b0316336001600160a01b03161461094f5760405162461bcd60e51b81526004016108be90611dec565b836001600160a01b0316856001600160a01b03167f01db5e58326b109682dc160b2e51aa7bf7e8d8ccf74bc242a3c50217937890558585604051610994929190611e3f565b60405180910390a36109a88585858561110d565b50632229f29760e21b949350505050565b600160205281600052604060002081815481106109d557600080fd5b600091825260209091206003909102018054600182015460029092015490935090915083565b6001600160a01b03811660009081526001602052604090205460609081908190819081906001600160401b03811115610a4457634e487b7160e01b600052604160045260246000fd5b604051908082528060200260200182016040528015610a6d578160200160208202803683370190505b506001600160a01b0387166000908152600160205260409020549095506001600160401b03811115610aaf57634e487b7160e01b600052604160045260246000fd5b604051908082528060200260200182016040528015610ad8578160200160208202803683370190505b506001600160a01b0387166000908152600160205260409020549094506001600160401b03811115610b1a57634e487b7160e01b600052604160045260246000fd5b604051908082528060200260200182016040528015610b43578160200160208202803683370190505b506001600160a01b0387166000908152600160205260409020549093506001600160401b03811115610b8557634e487b7160e01b600052604160045260246000fd5b604051908082528060200260200182016040528015610bae578160200160208202803683370190505b506001600160a01b0387166000908152600160205260409020549092506001600160401b03811115610bf057634e487b7160e01b600052604160045260246000fd5b604051908082528060200260200182016040528015610c19578160200160208202803683370190505b50905060005b6001600160a01b038716600090815260016020526040902054811015610e395780868281518110610c6057634e487b7160e01b600052603260045260246000fd5b60200260200101818152505060016000886001600160a01b03166001600160a01b031681526020019081526020016000208181548110610cb057634e487b7160e01b600052603260045260246000fd5b906000526020600020906003020160000154858281518110610ce257634e487b7160e01b600052603260045260246000fd5b60200260200101818152505060016000886001600160a01b03166001600160a01b031681526020019081526020016000208181548110610d3257634e487b7160e01b600052603260045260246000fd5b906000526020600020906003020160010154848281518110610d6457634e487b7160e01b600052603260045260246000fd5b602002602001018181525050610d7a8188610f53565b838281518110610d9a57634e487b7160e01b600052603260045260246000fd5b60200260200101818152505060016000886001600160a01b03166001600160a01b031681526020019081526020016000208181548110610dea57634e487b7160e01b600052603260045260246000fd5b906000526020600020906003020160020154828281518110610e1c57634e487b7160e01b600052603260045260246000fd5b602090810291909101015280610e3181611f45565b915050610c1f565b5091939590929450565b600080835b610e528486611eab565b811015610f4b57600254811015610f395760006001600060028481548110610e8a57634e487b7160e01b600052603260045260246000fd5b60009182526020808320909101546001600160a01b031683528281019390935260409182018120805483518186028101860190945280845292939092919084015b82821015610f1b5783829060005260206000209060030201604051806060016040529081600082015481526020016001820154815260200160028201548152505081526020019060010190610ecb565b505050509050610f358151846110aa90919063ffffffff16565b9250505b80610f4381611f45565b915050610e48565b509392505050565b6001600160a01b0381166000908152600160205260408120805482919085908110610f8e57634e487b7160e01b600052603260045260246000fd5b906000526020600020906003020160405180606001604052908160008201548152602001600182015481526020016002820154815250509050806040015160001415610fde576000915050610220565b80514290610fef90623b53806110aa565b1115610fff576000915050610220565b6000611025623b538061101f84600001514261139290919063ffffffff16565b90611392565b90506000611042630163f50061103c84605a61139e565b906113aa565b61104d90600a611eab565b9050606481111561105c575060645b600061107a606461103c84876040015161139e90919063ffffffff16565b9050836020015181101561108f57600061109f565b602084015161109f908290611392565b979650505050505050565b60006109148284611eab565b604080516001600160a01b038416602482015260448082018490528251808303909101815260649091019091526020810180516001600160e01b031663a9059cbb60e01b1790526111089084906113b6565b505050565b61112e604051806060016040528060238152602001611fc660239139611488565b80516111835761113e84836114ce565b61117e6040518060400160405280601a81526020017f5265636569766572202573206765747320256420746f6b656e73000000000000815250858461170a565b61138c565b6000808280602001905181019061119a9190611ac2565b9150915080518251146112155760405162461bcd60e51b815260206004820152603e60248201527f56657374696e672f5f7472616e7366657252656365697665643a204c656e677460448201527f68206d69736d6174636820696e20726563697069656e7473206c6973742e000060648201526084016108be565b6000805b82518163ffffffff16101561127557828163ffffffff168151811061124e57634e487b7160e01b600052603260045260246000fd5b6020026020010151826112619190611eab565b91508061126d81611f60565b915050611219565b508481146112ff5760405162461bcd60e51b815260206004820152604b60248201527f56657374696e672f5f7472616e7366657252656365697665643a20526563697060448201527f69656e747320616d6f756e7473206d69736d617463686573207769746820746f60648201526a3a30b61030b6b7bab73a1760a91b608482015260a4016108be565b60005b83518163ffffffff16101561138757611375848263ffffffff168151811061133a57634e487b7160e01b600052603260045260246000fd5b6020026020010151848363ffffffff168151811061136857634e487b7160e01b600052603260045260246000fd5b60200260200101516114ce565b8061137f81611f60565b915050611302565b505050505b50505050565b60006109148284611f02565b60006109148284611ee3565b60006109148284611ec3565b600061140b826040518060400160405280602081526020017f5361666545524332303a206c6f772d6c6576656c2063616c6c206661696c6564815250856001600160a01b03166117519092919063ffffffff16565b80519091501561110857808060200190518101906114299190611b87565b6111085760405162461bcd60e51b815260206004820152602a60248201527f5361666545524332303a204552433230206f7065726174696f6e20646964206e6044820152691bdd081cdd58d8d9595960b21b60648201526084016108be565b6114cb8160405160240161149c9190611dab565b60408051601f198184030181529190526020810180516001600160e01b031663104c13eb60e21b179052611768565b50565b6001600160a01b0382166115335760405162461bcd60e51b815260206004820152602660248201527f56657374696e672f6c6f636b3a20616464722073686f756c64206e6f7420626560448201526510373ab6361760d11b60648201526084016108be565b6000811161159a5760405162461bcd60e51b815260206004820152602e60248201527f56657374696e672f6c6f636b3a20616d6f756e742073686f756c64206265206760448201526d3932b0ba32b9103a3430b710181760911b60648201526084016108be565b6001600160a01b0382166000908152600160205260409020805461160457600280546001810182556000919091527f405787fa12a823e0f2b7631cc41b3ba8828b3321ca811111fa75cd3aa3bb5ace0180546001600160a01b0319166001600160a01b0385161790555b60408051606081018252428152600060208083018281528385018781528654600181810189558886529484902095516003909102909501948555905184840155516002909301929092558251808401909352601c83527f557365722025732068617665206c6f636b656420256420746f6b656e000000009183019190915282546116cb92918691859161169691611f02565b815481106116b457634e487b7160e01b600052603260045260246000fd5b90600052602060002090600302016002015461170a565b604080516001600160a01b0385168152602081018490527f625fed9875dada8643f2418b838ae0bc78d9a148a18eee4ee1979ff0f3f5d4279101610853565b61110883838360405160240161172293929190611dbe565b60408051601f198184030181529190526020810180516001600160e01b03166307c8121760e01b179052611768565b60606117608484600085611789565b949350505050565b80516a636f6e736f6c652e6c6f67602083016000808483855afa5050505050565b6060824710156117ea5760405162461bcd60e51b815260206004820152602660248201527f416464726573733a20696e73756666696369656e742062616c616e636520666f6044820152651c8818d85b1b60d21b60648201526084016108be565b6001600160a01b0385163b6118415760405162461bcd60e51b815260206004820152601d60248201527f416464726573733a2063616c6c20746f206e6f6e2d636f6e747261637400000060448201526064016108be565b600080866001600160a01b0316858760405161185d9190611c6e565b60006040518083038185875af1925050503d806000811461189a576040519150601f19603f3d011682016040523d82523d6000602084013e61189f565b606091505b509150915061109f828286606083156118b9575081610914565b8251156118c95782518084602001fd5b8160405162461bcd60e51b81526004016108be9190611dab565b600082601f8301126118f3578081fd5b8151602061190861190383611e88565b611e58565b80838252828201915082860187848660051b8901011115611927578586fd5b855b8581101561194557815184529284019290840190600101611929565b5090979650505050505050565b600082601f830112611962578081fd5b81356001600160401b0381111561197b5761197b611f9a565b61198e601f8201601f1916602001611e58565b8181528460208386010111156119a2578283fd5b816020850160208301379081016020019190915292915050565b6000602082840312156119cd578081fd5b813561091481611fb0565b600080600080608085870312156119ed578283fd5b84356119f881611fb0565b93506020850135611a0881611fb0565b92506040850135915060608501356001600160401b03811115611a29578182fd5b611a3587828801611952565b91505092959194509250565b60008060408385031215611a53578182fd5b8235611a5e81611fb0565b946020939093013593505050565b600080600060608486031215611a80578283fd5b8335611a8b81611fb0565b92506020840135915060408401356001600160401b03811115611aac578182fd5b611ab886828701611952565b9150509250925092565b60008060408385031215611ad4578182fd5b82516001600160401b0380821115611aea578384fd5b818501915085601f830112611afd578384fd5b81516020611b0d61190383611e88565b8083825282820191508286018a848660051b8901011115611b2c578889fd5b8896505b84871015611b57578051611b4381611fb0565b835260019690960195918301918301611b30565b5091880151919650909350505080821115611b70578283fd5b50611b7d858286016118e3565b9150509250929050565b600060208284031215611b98578081fd5b81518015158114610914578182fd5b600060208284031215611bb8578081fd5b81356001600160e01b031981168114610914578182fd5b600060208284031215611be0578081fd5b5035919050565b60008060408385031215611bf9578182fd5b50508035926020909101359150565b6000815180845260208085019450808401835b83811015611c3757815187529582019590820190600101611c1b565b509495945050505050565b60008151808452611c5a816020860160208601611f19565b601f01601f19169290920160200192915050565b60008251611c80818460208701611f19565b9190910192915050565b60c0808252875190820181905260009060209060e0840190828b01845b82811015611ccc5781516001600160a01b031684529284019290840190600101611ca7565b50505083810382850152611ce0818a611c08565b9150508281036040840152611cf58188611c08565b90508281036060840152611d098187611c08565b90508281036080840152611d1d8186611c08565b905082810360a0840152611d318185611c08565b9998505050505050505050565b60a081526000611d5160a0830188611c08565b8281036020840152611d638188611c08565b90508281036040840152611d778187611c08565b90508281036060840152611d8b8186611c08565b90508281036080840152611d9f8185611c08565b98975050505050505050565b6020815260006109146020830184611c42565b606081526000611dd16060830186611c42565b6001600160a01b039490941660208301525060400152919050565b60208082526033908201527f4552433133363350617961626c653a206163636570746564546f6b656e206973604082015272103737ba1036b2b9b9b0b3b29039b2b73232b960691b606082015260800190565b8281526040602082015260006117606040830184611c42565b604051601f8201601f191681016001600160401b0381118282101715611e8057611e80611f9a565b604052919050565b60006001600160401b03821115611ea157611ea1611f9a565b5060051b60200190565b60008219821115611ebe57611ebe611f84565b500190565b600082611ede57634e487b7160e01b81526012600452602481fd5b500490565b6000816000190483118215151615611efd57611efd611f84565b500290565b600082821015611f1457611f14611f84565b500390565b60005b83811015611f34578181015183820152602001611f1c565b8381111561138c5750506000910152565b6000600019821415611f5957611f59611f84565b5060010190565b600063ffffffff80831681811415611f7a57611f7a611f84565b6001019392505050565b634e487b7160e01b600052601160045260246000fd5b634e487b7160e01b600052604160045260246000fd5b6001600160a01b03811681146114cb57600080fdfe56657374696e67203a205472616e7366657252656365697665642046756e6374696f6ea2646970667358221220438197cc6f48365fdde05c38d942c94f12b7dab10f5c68cf2d45a6f29007adb864736f6c63430008040033",
  "linkReferences": {},
  "deployedLinkReferences": {}
}