{
  "_format": "hh-sol-artifact-1",
  "contractName": "LeafPresale",
  "sourceName": "contracts/LeafPresale.sol",
  "abi": [
    {
      "inputs": [
        {
          "internalType": "address",
          "name": "leafAddress",
          "type": "address"
        },
        {
          "internalType": "address",
          "name": "vestingAddress",
          "type": "address"
        },
        {
          "internalType": "uint256",
          "name": "minAcceptedAmount",
          "type": "uint256"
        },
        {
          "internalType": "uint256",
          "name": "leafInWei",
          "type": "uint256"
        }
      ],
      "stateMutability": "nonpayable",
      "type": "constructor"
    },
    {
      "anonymous": false,
      "inputs": [
        {
          "indexed": false,
          "internalType": "uint256",
          "name": "amount",
          "type": "uint256"
        }
      ],
      "name": "Aborted",
      "type": "event"
    },
    {
      "anonymous": false,
      "inputs": [
        {
          "indexed": true,
          "internalType": "address",
          "name": "previousOwner",
          "type": "address"
        },
        {
          "indexed": true,
          "internalType": "address",
          "name": "newOwner",
          "type": "address"
        }
      ],
      "name": "OwnershipTransferred",
      "type": "event"
    },
    {
      "inputs": [],
      "name": "abort",
      "outputs": [],
      "stateMutability": "nonpayable",
      "type": "function"
    },
    {
      "inputs": [],
      "name": "getLeafTokenBalance",
      "outputs": [
        {
          "internalType": "uint256",
          "name": "",
          "type": "uint256"
        }
      ],
      "stateMutability": "view",
      "type": "function"
    },
    {
      "inputs": [],
      "name": "isPresaleOn",
      "outputs": [
        {
          "internalType": "bool",
          "name": "",
          "type": "bool"
        }
      ],
      "stateMutability": "view",
      "type": "function"
    },
    {
      "inputs": [],
      "name": "leafTokenContract",
      "outputs": [
        {
          "internalType": "contract IERC1363",
          "name": "",
          "type": "address"
        }
      ],
      "stateMutability": "view",
      "type": "function"
    },
    {
      "inputs": [],
      "name": "leafValueInWei",
      "outputs": [
        {
          "internalType": "uint256",
          "name": "",
          "type": "uint256"
        }
      ],
      "stateMutability": "view",
      "type": "function"
    },
    {
      "inputs": [],
      "name": "longTermVestingContract",
      "outputs": [
        {
          "internalType": "address",
          "name": "",
          "type": "address"
        }
      ],
      "stateMutability": "view",
      "type": "function"
    },
    {
      "inputs": [],
      "name": "minAcceptAmount",
      "outputs": [
        {
          "internalType": "uint256",
          "name": "",
          "type": "uint256"
        }
      ],
      "stateMutability": "view",
      "type": "function"
    },
    {
      "inputs": [],
      "name": "owner",
      "outputs": [
        {
          "internalType": "address",
          "name": "",
          "type": "address"
        }
      ],
      "stateMutability": "view",
      "type": "function"
    },
    {
      "inputs": [
        {
          "internalType": "address",
          "name": "",
          "type": "address"
        }
      ],
      "name": "recipients",
      "outputs": [
        {
          "internalType": "uint256",
          "name": "depositAmount",
          "type": "uint256"
        },
        {
          "internalType": "uint256",
          "name": "tokenAmount",
          "type": "uint256"
        }
      ],
      "stateMutability": "view",
      "type": "function"
    },
    {
      "inputs": [],
      "name": "renounceOwnership",
      "outputs": [],
      "stateMutability": "nonpayable",
      "type": "function"
    },
    {
      "inputs": [
        {
          "internalType": "uint256",
          "name": "value",
          "type": "uint256"
        }
      ],
      "name": "setLeafValueInWei",
      "outputs": [],
      "stateMutability": "nonpayable",
      "type": "function"
    },
    {
      "inputs": [
        {
          "internalType": "uint256",
          "name": "value_",
          "type": "uint256"
        }
      ],
      "name": "setMinAcceptAmountIn",
      "outputs": [],
      "stateMutability": "nonpayable",
      "type": "function"
    },
    {
      "inputs": [],
      "name": "totalLeafSold",
      "outputs": [
        {
          "internalType": "uint256",
          "name": "",
          "type": "uint256"
        }
      ],
      "stateMutability": "view",
      "type": "function"
    },
    {
      "inputs": [
        {
          "internalType": "address",
          "name": "newOwner",
          "type": "address"
        }
      ],
      "name": "transferOwnership",
      "outputs": [],
      "stateMutability": "nonpayable",
      "type": "function"
    },
    {
      "stateMutability": "payable",
      "type": "receive"
    }
  ],
  "bytecode": "0x60806040523480156200001157600080fd5b50604051620016143803806200161483398101604081905262000034916200025f565b60016000556200004433620001f0565b6001600160a01b038416620000c55760405162461bcd60e51b81526020600482015260476024820152600080516020620015f483398151915260448201527f20746f20736574206e756c6c20746f20746f6b656e20636f6e7472616374206160648201526632323932b9b99760c91b608482015260a4015b60405180910390fd5b6001600160a01b038316620001445760405162461bcd60e51b81526020600482015260496024820152600080516020620015f483398151915260448201527f20746f20736574206e756c6c20746f2076657374696e6720636f6e74726163746064820152681030b2323932b9b99760b91b608482015260a401620000bc565b80620001b25760405162461bcd60e51b81526020600482015260416024820152600080516020620015f483398151915260448201527f20746f20736574203020746f206c656166496e6e56616c756520416d6f756e746064820152601760f91b608482015260a401620000bc565b600780546001600160a01b039586166001600160a01b03199182161790915560039190915560029190915560068054929093169116179055620002a6565b600180546001600160a01b038381166001600160a01b0319831681179093556040519116919082907f8be0079c531659141344cd1fd0a4f28419497f9722a3daafe3b4186f6b6457e090600090a35050565b80516001600160a01b03811681146200025a57600080fd5b919050565b6000806000806080858703121562000275578384fd5b620002808562000242565b9350620002906020860162000242565b6040860151606090960151949790965092505050565b61133e80620002b66000396000f3fe6080604052600436106100e15760003560e01c8063a21309cf1161007f578063bc4e683a11610059578063bc4e683a146103c4578063cb86fd77146103e4578063eb820312146103fa578063f2fde38b1461044357600080fd5b8063a21309cf1461036e578063a3b39fcd1461038e578063b42d5fbc146103ae57600080fd5b8063715018a6116100bb578063715018a61461030157806386be53d3146103165780638da5cb5b1461033b578063971331b81461035957600080fd5b806316fff4061461028957806335a063b4146102b257806356a1a2d1146102c957600080fd5b36610284576002600054141561013e5760405162461bcd60e51b815260206004820152601f60248201527f5265656e7472616e637947756172643a207265656e7472616e742063616c6c0060448201526064015b60405180910390fd5b600260005560408051808201909152601c81527f2d2d2d4465706f7369742046756374696f6e2043616c6c65642d2d2d00000000602082015261018090610463565b6101886104a9565b6101e45760405162461bcd60e51b815260206004820152602760248201527f50726573616c652f6465706f7369743a2050726573616c65206973206e6f742060448201526630b1ba34bb329760c91b6064820152608401610135565b60025434101561026d5760405162461bcd60e51b815260206004820152604860248201527f50726573616c652f6465706f7369743a204465706f736974656420455448206960448201527f73206c657373207468616e20746865206d696e696d756d20616d6f756e74207260648201526732b8bab4b932b21760c11b608482015260a401610135565b61027561053b565b61027d6107dc565b6001600055005b600080fd5b34801561029557600080fd5b5061029f60035481565b6040519081526020015b60405180910390f35b3480156102be57600080fd5b506102c7610917565b005b3480156102d557600080fd5b506007546102e9906001600160a01b031681565b6040516001600160a01b0390911681526020016102a9565b34801561030d57600080fd5b506102c7610a24565b34801561032257600080fd5b5061032b6104a9565b60405190151581526020016102a9565b34801561034757600080fd5b506001546001600160a01b03166102e9565b34801561036557600080fd5b5061029f610a5a565b34801561037a57600080fd5b506102c761038936600461109d565b610b53565b34801561039a57600080fd5b506102c76103a936600461109d565b610c05565b3480156103ba57600080fd5b5061029f60055481565b3480156103d057600080fd5b506006546102e9906001600160a01b031681565b3480156103f057600080fd5b5061029f60025481565b34801561040657600080fd5b5061042e610415366004611056565b6004602052600090815260409020805460019091015482565b604080519283526020830191909152016102a9565b34801561044f57600080fd5b506102c761045e366004611056565b610c34565b6104a68160405160240161047791906111c8565b60408051601f198184030181529190526020810180516001600160e01b031663104c13eb60e21b179052610ccc565b50565b6007546040516370a0823160e01b815230600482015260009182916001600160a01b03909116906370a082319060240160206040518083038186803b1580156104f157600080fd5b505afa158015610505573d6000803e3d6000fd5b505050506040513d601f19601f8201168201806040525081019061052991906110b5565b11156105355750600190565b50600090565b600354349060009061055f9061055984670de0b6b3a7640000610ced565b90610d00565b905061058b6040518060600160405280603681526020016112d360369139610585610a5a565b83610d0c565b80610594610a5a565b10156106005760405162461bcd60e51b815260206004820152603560248201527f50726573616c652f6465706f736974496e7465726e616c3a204e6f7420656e6f6044820152743ab3b4103a37b5b2b7399030bb30b4b630b136329760591b6064820152608401610135565b3360008181526004602052604090205461061a9084610d53565b6001600160a01b0382166000908152600460205260409020908155600101546106439083610d53565b6001600160a01b03821660009081526004602052604090206001015560055461066c9083610d53565b600555604080516001808252818301909252600091829190602080830190803683375050604080516001808252818301909252915060208083019080368337019050509150915082826000815181106106d557634e487b7160e01b600052603260045260246000fd5b60200260200101906001600160a01b031690816001600160a01b031681525050838160008151811061071757634e487b7160e01b600052603260045260246000fd5b6020908102919091018101919091526007546006546040516001600160a01b0392831693634000aea093909216918891610755918891889101611145565b6040516020818303038152906040526040518463ffffffff1660e01b815260040161078293929190611115565b602060405180830381600087803b15801561079c57600080fd5b505af11580156107b0573d6000803e3d6000fd5b505050506040513d601f19601f820116820180604052508101906107d4919061107d565b505050505050565b47806108475760405162461bcd60e51b815260206004820152603460248201527f50726573616c652f7769746864726177546f4f776e65723a204e6f20455448206044820152733130b630b731b2903a37903bb4ba34323930bb9760611b6064820152608401610135565b600061085b6001546001600160a01b031690565b90506000816001600160a01b03168360405160006040518083038185875af1925050503d80600081146108aa576040519150601f19603f3d011682016040523d82523d6000602084013e6108af565b606091505b50509050806109125760405162461bcd60e51b815260206004820152602960248201527f50726573616c652f7769746864726177546f4f776e65723a205472616e73666560448201526839103330b4b632b21760b91b6064820152608401610135565b505050565b6001546001600160a01b031633146109415760405162461bcd60e51b815260040161013590611200565b6007546040516370a0823160e01b81523060048201526000916001600160a01b0316906370a082319060240160206040518083038186803b15801561098557600080fd5b505afa158015610999573d6000803e3d6000fd5b505050506040513d601f19601f820116820180604052508101906109bd91906110b5565b905060006109d36001546001600160a01b031690565b6007549091506109ed906001600160a01b03168284610d5f565b6040518281527ffeb36f56534b0ff4e6eba082533ed58e74eb9820d042b1c4a3eee9d32871ecee9060200160405180910390a15050565b6001546001600160a01b03163314610a4e5760405162461bcd60e51b815260040161013590611200565b610a586000610db1565b565b6007546000906001600160a01b0316610ad35760405162461bcd60e51b815260206004820152603560248201527f50726573616c652f6765744c656166546f6b656e42616c616e63653a20536574604482015274206c65616620746f6b656e20636f6e74726163742160581b6064820152608401610135565b6007546040516370a0823160e01b81523060048201526001600160a01b03909116906370a082319060240160206040518083038186803b158015610b1657600080fd5b505afa158015610b2a573d6000803e3d6000fd5b505050506040513d601f19601f82011682018060405250810190610b4e91906110b5565b905090565b6001546001600160a01b03163314610b7d5760405162461bcd60e51b815260040161013590611200565b80610c005760405162461bcd60e51b815260206004820152604760248201527f50726573616c652f7365744c65616656616c7565496e5765693a204e6f74206160448201527f6c6c6f77656420746f20736574203020746f206c656166496e6e56616c75652060648201526620b6b7bab73a1760c91b608482015260a401610135565b600355565b6001546001600160a01b03163314610c2f5760405162461bcd60e51b815260040161013590611200565b600255565b6001546001600160a01b03163314610c5e5760405162461bcd60e51b815260040161013590611200565b6001600160a01b038116610cc35760405162461bcd60e51b815260206004820152602660248201527f4f776e61626c653a206e6577206f776e657220697320746865207a65726f206160448201526564647265737360d01b6064820152608401610135565b6104a681610db1565b80516a636f6e736f6c652e6c6f67602083016000808483855afa5050505050565b6000610cf9828461126d565b9392505050565b6000610cf9828461124d565b610912838383604051602401610d24939291906111db565b60408051601f198184030181529190526020810180516001600160e01b031663969cdd0360e01b179052610ccc565b6000610cf98284611235565b604080516001600160a01b038416602482015260448082018490528251808303909101815260649091019091526020810180516001600160e01b031663a9059cbb60e01b179052610912908490610e03565b600180546001600160a01b038381166001600160a01b0319831681179093556040519116919082907f8be0079c531659141344cd1fd0a4f28419497f9722a3daafe3b4186f6b6457e090600090a35050565b6000610e58826040518060400160405280602081526020017f5361666545524332303a206c6f772d6c6576656c2063616c6c206661696c6564815250856001600160a01b0316610ed59092919063ffffffff16565b8051909150156109125780806020019051810190610e76919061107d565b6109125760405162461bcd60e51b815260206004820152602a60248201527f5361666545524332303a204552433230206f7065726174696f6e20646964206e6044820152691bdd081cdd58d8d9595960b21b6064820152608401610135565b6060610ee48484600085610eec565b949350505050565b606082471015610f4d5760405162461bcd60e51b815260206004820152602660248201527f416464726573733a20696e73756666696369656e742062616c616e636520666f6044820152651c8818d85b1b60d21b6064820152608401610135565b6001600160a01b0385163b610fa45760405162461bcd60e51b815260206004820152601d60248201527f416464726573733a2063616c6c20746f206e6f6e2d636f6e74726163740000006044820152606401610135565b600080866001600160a01b03168587604051610fc091906110f9565b60006040518083038185875af1925050503d8060008114610ffd576040519150601f19603f3d011682016040523d82523d6000602084013e611002565b606091505b509150915061101282828661101d565b979650505050505050565b6060831561102c575081610cf9565b82511561103c5782518084602001fd5b8160405162461bcd60e51b815260040161013591906111c8565b600060208284031215611067578081fd5b81356001600160a01b0381168114610cf9578182fd5b60006020828403121561108e578081fd5b81518015158114610cf9578182fd5b6000602082840312156110ae578081fd5b5035919050565b6000602082840312156110c6578081fd5b5051919050565b600081518084526110e581602086016020860161128c565b601f01601f19169290920160200192915050565b6000825161110b81846020870161128c565b9190910192915050565b60018060a01b038416815282602082015260606040820152600061113c60608301846110cd565b95945050505050565b604080825283519082018190526000906020906060840190828701845b828110156111875781516001600160a01b031684529284019290840190600101611162565b50505083810382850152845180825285830191830190845b818110156111bb5783518352928401929184019160010161119f565b5090979650505050505050565b602081526000610cf960208301846110cd565b6060815260006111ee60608301866110cd565b60208301949094525060400152919050565b6020808252818101527f4f776e61626c653a2063616c6c6572206973206e6f7420746865206f776e6572604082015260600190565b60008219821115611248576112486112bc565b500190565b60008261126857634e487b7160e01b81526012600452602481fd5b500490565b6000816000190483118215151615611287576112876112bc565b500290565b60005b838110156112a757818101518382015260200161128f565b838111156112b6576000848401525b50505050565b634e487b7160e01b600052601160045260246000fdfe417661696c61626c6520746f6b656e20616d6f756e74206973202d20256420616e6420616d6f756e7420746f20627579206973202564a2646970667358221220298a8dbe5938419e2d29744b6d06ca33f4f9882b248af60913114eb16729356064736f6c6343000804003350726573616c652f636f6e7374727563746f723a204e6f7420616c6c6f776564",
  "linkReferences": {},
  "deployedLinkReferences": {}
}