{
  "_format": "hh-sol-artifact-1",
  "contractName": "LeafToken",
  "sourceName": "contracts/LeafToken.sol",
  "abi": [
    {
      "inputs": [],
      "stateMutability": "nonpayable",
      "type": "constructor"
    },
    {
      "anonymous": false,
      "inputs": [
        {
          "indexed": true,
          "internalType": "address",
          "name": "owner",
          "type": "address"
        },
        {
          "indexed": true,
          "internalType": "address",
          "name": "spender",
          "type": "address"
        },
        {
          "indexed": false,
          "internalType": "uint256",
          "name": "value",
          "type": "uint256"
        }
      ],
      "name": "Approval",
      "type": "event"
    },
    {
      "anonymous": false,
      "inputs": [
        {
          "indexed": true,
          "internalType": "address",
          "name": "from",
          "type": "address"
        },
        {
          "indexed": true,
          "internalType": "address",
          "name": "to",
          "type": "address"
        },
        {
          "indexed": false,
          "internalType": "uint256",
          "name": "value",
          "type": "uint256"
        }
      ],
      "name": "Transfer",
      "type": "event"
    },
    {
      "inputs": [],
      "name": "_decimals",
      "outputs": [
        {
          "internalType": "uint8",
          "name": "",
          "type": "uint8"
        }
      ],
      "stateMutability": "view",
      "type": "function"
    },
    {
      "inputs": [],
      "name": "_totalSupply",
      "outputs": [
        {
          "internalType": "uint256",
          "name": "",
          "type": "uint256"
        }
      ],
      "stateMutability": "view",
      "type": "function"
    },
    {
      "inputs": [
        {
          "internalType": "address",
          "name": "owner",
          "type": "address"
        },
        {
          "internalType": "address",
          "name": "spender",
          "type": "address"
        }
      ],
      "name": "allowance",
      "outputs": [
        {
          "internalType": "uint256",
          "name": "",
          "type": "uint256"
        }
      ],
      "stateMutability": "view",
      "type": "function"
    },
    {
      "inputs": [
        {
          "internalType": "address",
          "name": "spender",
          "type": "address"
        },
        {
          "internalType": "uint256",
          "name": "amount",
          "type": "uint256"
        }
      ],
      "name": "approve",
      "outputs": [
        {
          "internalType": "bool",
          "name": "",
          "type": "bool"
        }
      ],
      "stateMutability": "nonpayable",
      "type": "function"
    },
    {
      "inputs": [
        {
          "internalType": "address",
          "name": "spender",
          "type": "address"
        },
        {
          "internalType": "uint256",
          "name": "amount",
          "type": "uint256"
        }
      ],
      "name": "approveAndCall",
      "outputs": [
        {
          "internalType": "bool",
          "name": "",
          "type": "bool"
        }
      ],
      "stateMutability": "nonpayable",
      "type": "function"
    },
    {
      "inputs": [
        {
          "internalType": "address",
          "name": "spender",
          "type": "address"
        },
        {
          "internalType": "uint256",
          "name": "amount",
          "type": "uint256"
        },
        {
          "internalType": "bytes",
          "name": "data",
          "type": "bytes"
        }
      ],
      "name": "approveAndCall",
      "outputs": [
        {
          "internalType": "bool",
          "name": "",
          "type": "bool"
        }
      ],
      "stateMutability": "nonpayable",
      "type": "function"
    },
    {
      "inputs": [
        {
          "internalType": "address",
          "name": "account",
          "type": "address"
        }
      ],
      "name": "balanceOf",
      "outputs": [
        {
          "internalType": "uint256",
          "name": "",
          "type": "uint256"
        }
      ],
      "stateMutability": "view",
      "type": "function"
    },
    {
      "inputs": [],
      "name": "decimals",
      "outputs": [
        {
          "internalType": "uint8",
          "name": "",
          "type": "uint8"
        }
      ],
      "stateMutability": "view",
      "type": "function"
    },
    {
      "inputs": [
        {
          "internalType": "address",
          "name": "spender",
          "type": "address"
        },
        {
          "internalType": "uint256",
          "name": "subtractedValue",
          "type": "uint256"
        }
      ],
      "name": "decreaseAllowance",
      "outputs": [
        {
          "internalType": "bool",
          "name": "",
          "type": "bool"
        }
      ],
      "stateMutability": "nonpayable",
      "type": "function"
    },
    {
      "inputs": [
        {
          "internalType": "address",
          "name": "spender",
          "type": "address"
        },
        {
          "internalType": "uint256",
          "name": "addedValue",
          "type": "uint256"
        }
      ],
      "name": "increaseAllowance",
      "outputs": [
        {
          "internalType": "bool",
          "name": "",
          "type": "bool"
        }
      ],
      "stateMutability": "nonpayable",
      "type": "function"
    },
    {
      "inputs": [],
      "name": "name",
      "outputs": [
        {
          "internalType": "string",
          "name": "",
          "type": "string"
        }
      ],
      "stateMutability": "view",
      "type": "function"
    },
    {
      "inputs": [
        {
          "internalType": "bytes4",
          "name": "interfaceId",
          "type": "bytes4"
        }
      ],
      "name": "supportsInterface",
      "outputs": [
        {
          "internalType": "bool",
          "name": "",
          "type": "bool"
        }
      ],
      "stateMutability": "view",
      "type": "function"
    },
    {
      "inputs": [],
      "name": "symbol",
      "outputs": [
        {
          "internalType": "string",
          "name": "",
          "type": "string"
        }
      ],
      "stateMutability": "view",
      "type": "function"
    },
    {
      "inputs": [],
      "name": "totalSupply",
      "outputs": [
        {
          "internalType": "uint256",
          "name": "",
          "type": "uint256"
        }
      ],
      "stateMutability": "view",
      "type": "function"
    },
    {
      "inputs": [
        {
          "internalType": "address",
          "name": "to",
          "type": "address"
        },
        {
          "internalType": "uint256",
          "name": "amount",
          "type": "uint256"
        }
      ],
      "name": "transfer",
      "outputs": [
        {
          "internalType": "bool",
          "name": "",
          "type": "bool"
        }
      ],
      "stateMutability": "nonpayable",
      "type": "function"
    },
    {
      "inputs": [
        {
          "internalType": "address",
          "name": "to",
          "type": "address"
        },
        {
          "internalType": "uint256",
          "name": "amount",
          "type": "uint256"
        }
      ],
      "name": "transferAndCall",
      "outputs": [
        {
          "internalType": "bool",
          "name": "",
          "type": "bool"
        }
      ],
      "stateMutability": "nonpayable",
      "type": "function"
    },
    {
      "inputs": [
        {
          "internalType": "address",
          "name": "to",
          "type": "address"
        },
        {
          "internalType": "uint256",
          "name": "amount",
          "type": "uint256"
        },
        {
          "internalType": "bytes",
          "name": "data",
          "type": "bytes"
        }
      ],
      "name": "transferAndCall",
      "outputs": [
        {
          "internalType": "bool",
          "name": "",
          "type": "bool"
        }
      ],
      "stateMutability": "nonpayable",
      "type": "function"
    },
    {
      "inputs": [
        {
          "internalType": "address",
          "name": "from",
          "type": "address"
        },
        {
          "internalType": "address",
          "name": "to",
          "type": "address"
        },
        {
          "internalType": "uint256",
          "name": "amount",
          "type": "uint256"
        }
      ],
      "name": "transferFrom",
      "outputs": [
        {
          "internalType": "bool",
          "name": "",
          "type": "bool"
        }
      ],
      "stateMutability": "nonpayable",
      "type": "function"
    },
    {
      "inputs": [
        {
          "internalType": "address",
          "name": "from",
          "type": "address"
        },
        {
          "internalType": "address",
          "name": "to",
          "type": "address"
        },
        {
          "internalType": "uint256",
          "name": "amount",
          "type": "uint256"
        },
        {
          "internalType": "bytes",
          "name": "data",
          "type": "bytes"
        }
      ],
      "name": "transferFromAndCall",
      "outputs": [
        {
          "internalType": "bool",
          "name": "",
          "type": "bool"
        }
      ],
      "stateMutability": "nonpayable",
      "type": "function"
    },
    {
      "inputs": [
        {
          "internalType": "address",
          "name": "from",
          "type": "address"
        },
        {
          "internalType": "address",
          "name": "to",
          "type": "address"
        },
        {
          "internalType": "uint256",
          "name": "amount",
          "type": "uint256"
        }
      ],
      "name": "transferFromAndCall",
      "outputs": [
        {
          "internalType": "bool",
          "name": "",
          "type": "bool"
        }
      ],
      "stateMutability": "nonpayable",
      "type": "function"
    }
  ],
  "bytecode": "0x60806040523480156200001157600080fd5b5060408051808201825260088152672632b0b321b7b4b760c11b6020808301918252835180850190945260048452632622a0a360e11b9084015281519192916200005e9160039162000191565b5080516200007490600490602084019062000191565b50620000a391503390506200008c6012600a6200029b565b6200009d906461c9f3680062000366565b620000a9565b620003db565b6001600160a01b038216620001045760405162461bcd60e51b815260206004820152601f60248201527f45524332303a206d696e7420746f20746865207a65726f206164647265737300604482015260640160405180910390fd5b806002600082825462000118919062000237565b90915550506001600160a01b038216600090815260208190526040812080548392906200014790849062000237565b90915550506040518181526001600160a01b038316906000907fddf252ad1be2c89b69c2b068fc378daa952ba7f163c4a11628f55a4df523b3ef9060200160405180910390a35050565b8280546200019f9062000388565b90600052602060002090601f016020900481019282620001c357600085556200020e565b82601f10620001de57805160ff19168380011785556200020e565b828001600101855582156200020e579182015b828111156200020e578251825591602001919060010190620001f1565b506200021c92915062000220565b5090565b5b808211156200021c576000815560010162000221565b600082198211156200024d576200024d620003c5565b500190565b600181815b8085111562000293578160001904821115620002775762000277620003c5565b808516156200028557918102915b93841c939080029062000257565b509250929050565b6000620002a98383620002b0565b9392505050565b600082620002c15750600162000360565b81620002d05750600062000360565b8160018114620002e95760028114620002f45762000314565b600191505062000360565b60ff841115620003085762000308620003c5565b50506001821b62000360565b5060208310610133831016604e8410600b841016171562000339575081810a62000360565b62000345838362000252565b80600019048211156200035c576200035c620003c5565b0290505b92915050565b6000816000190483118215151615620003835762000383620003c5565b500290565b600181811c908216806200039d57607f821691505b60208210811415620003bf57634e487b7160e01b600052602260045260246000fd5b50919050565b634e487b7160e01b600052601160045260246000fd5b61106780620003eb6000396000f3fe608060405234801561001057600080fd5b506004361061012c5760003560e01c80633eaaf86b116100ad578063a9059cbb11610071578063a9059cbb1461025b578063c1d34b891461026e578063cae9ca5114610281578063d8fbe99414610294578063dd62ed3e146102a757600080fd5b80633eaaf86b146101fc5780634000aea01461020457806370a082311461021757806395d89b4114610240578063a457c2d71461024857600080fd5b806323b872dd116100f457806323b872dd146101a6578063313ce567146101b95780633177029f146101ce57806332424aa3146101e157806339509351146101e957600080fd5b806301ffc9a71461013157806306fdde0314610159578063095ea7b31461016e5780631296ee621461018157806318160ddd14610194575b600080fd5b61014461013f366004610d46565b6102e0565b60405190151581526020015b60405180910390f35b610161610317565b6040516101509190610e36565b61014461017c366004610cc8565b6103a9565b61014461018f366004610cc8565b6103c1565b6002545b604051908152602001610150565b6101446101b4366004610c27565b6103e4565b60125b60405160ff9091168152602001610150565b6101446101dc366004610cc8565b610408565b6101bc601281565b6101446101f7366004610cc8565b610424565b610198610463565b610144610212366004610cf1565b610481565b610198610225366004610bdb565b6001600160a01b031660009081526020819052604090205490565b6101616104bf565b610144610256366004610cc8565b6104ce565b610144610269366004610cc8565b610560565b61014461027c366004610c62565b61056e565b61014461028f366004610cf1565b6105ac565b6101446102a2366004610c27565b61061e565b6101986102b5366004610bf5565b6001600160a01b03918216600090815260016020908152604080832093909416825291909152205490565b60006001600160e01b0319821663b0202a1160e01b148061031157506301ffc9a760e01b6001600160e01b03198316145b92915050565b60606003805461032690610fb1565b80601f016020809104026020016040519081016040528092919081815260200182805461035290610fb1565b801561039f5780601f106103745761010080835404028352916020019161039f565b820191906000526020600020905b81548152906001019060200180831161038257829003601f168201915b5050505050905090565b6000336103b781858561063b565b5060019392505050565b60006103dd838360405180602001604052806000815250610481565b9392505050565b6000336103f285828561075f565b6103fd8585856107f1565b506001949350505050565b60006103dd8383604051806020016040528060008152506105ac565b3360008181526001602090815260408083206001600160a01b03871684529091528120549091906103b7908290869061045e908790610e8f565b61063b565b61046f6012600a610eea565b61047e906461c9f36800610f92565b81565b600061048d8484610560565b5061049a338585856109bf565b6103b75760405162461bcd60e51b81526004016104b690610e49565b60405180910390fd5b60606004805461032690610fb1565b3360008181526001602090815260408083206001600160a01b0387168452909152812054909190838110156105535760405162461bcd60e51b815260206004820152602560248201527f45524332303a2064656372656173656420616c6c6f77616e63652062656c6f77604482015264207a65726f60d81b60648201526084016104b6565b6103fd828686840361063b565b6000336103b78185856107f1565b600061057b8585856103e4565b50610588858585856109bf565b6103fd5760405162461bcd60e51b81526004016104b690610e49565b949350505050565b60006105b884846103a9565b506105c4848484610a7d565b6103b75760405162461bcd60e51b815260206004820152602560248201527f455243313336333a205f636865636b416e6443616c6c417070726f7665207265604482015264766572747360d81b60648201526084016104b6565b60006105a48484846040518060200160405280600081525061056e565b6001600160a01b03831661069d5760405162461bcd60e51b8152602060048201526024808201527f45524332303a20617070726f76652066726f6d20746865207a65726f206164646044820152637265737360e01b60648201526084016104b6565b6001600160a01b0382166106fe5760405162461bcd60e51b815260206004820152602260248201527f45524332303a20617070726f766520746f20746865207a65726f206164647265604482015261737360f01b60648201526084016104b6565b6001600160a01b0383811660008181526001602090815260408083209487168084529482529182902085905590518481527f8c5be1e5ebec7d5bd14f71427d1e84f3dd0314c0f7b2291e5b200ac8c7c3b925910160405180910390a3505050565b6001600160a01b0383811660009081526001602090815260408083209386168352929052205460001981146107eb57818110156107de5760405162461bcd60e51b815260206004820152601d60248201527f45524332303a20696e73756666696369656e7420616c6c6f77616e636500000060448201526064016104b6565b6107eb848484840361063b565b50505050565b6001600160a01b0383166108555760405162461bcd60e51b815260206004820152602560248201527f45524332303a207472616e736665722066726f6d20746865207a65726f206164604482015264647265737360d81b60648201526084016104b6565b6001600160a01b0382166108b75760405162461bcd60e51b815260206004820152602360248201527f45524332303a207472616e7366657220746f20746865207a65726f206164647260448201526265737360e81b60648201526084016104b6565b6001600160a01b0383166000908152602081905260409020548181101561092f5760405162461bcd60e51b815260206004820152602660248201527f45524332303a207472616e7366657220616d6f756e7420657863656564732062604482015265616c616e636560d01b60648201526084016104b6565b6001600160a01b03808516600090815260208190526040808220858503905591851681529081208054849290610966908490610e8f565b92505081905550826001600160a01b0316846001600160a01b03167fddf252ad1be2c89b69c2b068fc378daa952ba7f163c4a11628f55a4df523b3ef846040516109b291815260200190565b60405180910390a36107eb565b60006001600160a01b0384163b6109d8575060006105a4565b604051632229f29760e21b81526000906001600160a01b038616906388a7ca5c90610a0d9033908a9089908990600401610dc9565b602060405180830381600087803b158015610a2757600080fd5b505af1158015610a3b573d6000803e3d6000fd5b505050506040513d601f19601f82011682018060405250810190610a5f9190610d62565b6001600160e01b031916632229f29760e21b14915050949350505050565b60006001600160a01b0384163b610a96575060006103dd565b6040516307b04a2d60e41b81526000906001600160a01b03861690637b04a2d090610ac990339088908890600401610e06565b602060405180830381600087803b158015610ae357600080fd5b505af1158015610af7573d6000803e3d6000fd5b505050506040513d601f19601f82011682018060405250810190610b1b9190610d62565b6001600160e01b0319166307b04a2d60e41b149150509392505050565b80356001600160a01b0381168114610b4f57600080fd5b919050565b600082601f830112610b64578081fd5b813567ffffffffffffffff80821115610b7f57610b7f611002565b604051601f8301601f19908116603f01168101908282118183101715610ba757610ba7611002565b81604052838152866020858801011115610bbf578485fd5b8360208701602083013792830160200193909352509392505050565b600060208284031215610bec578081fd5b6103dd82610b38565b60008060408385031215610c07578081fd5b610c1083610b38565b9150610c1e60208401610b38565b90509250929050565b600080600060608486031215610c3b578081fd5b610c4484610b38565b9250610c5260208501610b38565b9150604084013590509250925092565b60008060008060808587031215610c77578081fd5b610c8085610b38565b9350610c8e60208601610b38565b925060408501359150606085013567ffffffffffffffff811115610cb0578182fd5b610cbc87828801610b54565b91505092959194509250565b60008060408385031215610cda578182fd5b610ce383610b38565b946020939093013593505050565b600080600060608486031215610d05578283fd5b610d0e84610b38565b925060208401359150604084013567ffffffffffffffff811115610d30578182fd5b610d3c86828701610b54565b9150509250925092565b600060208284031215610d57578081fd5b81356103dd81611018565b600060208284031215610d73578081fd5b81516103dd81611018565b60008151808452815b81811015610da357602081850181015186830182015201610d87565b81811115610db45782602083870101525b50601f01601f19169290920160200192915050565b6001600160a01b0385811682528416602082015260408101839052608060608201819052600090610dfc90830184610d7e565b9695505050505050565b60018060a01b0384168152826020820152606060408201526000610e2d6060830184610d7e565b95945050505050565b6020815260006103dd6020830184610d7e565b60208082526026908201527f455243313336333a205f636865636b416e6443616c6c5472616e73666572207260408201526565766572747360d01b606082015260800190565b60008219821115610ea257610ea2610fec565b500190565b600181815b80851115610ee2578160001904821115610ec857610ec8610fec565b80851615610ed557918102915b93841c9390800290610eac565b509250929050565b60006103dd8383600082610f0057506001610311565b81610f0d57506000610311565b8160018114610f235760028114610f2d57610f49565b6001915050610311565b60ff841115610f3e57610f3e610fec565b50506001821b610311565b5060208310610133831016604e8410600b8410161715610f6c575081810a610311565b610f768383610ea7565b8060001904821115610f8a57610f8a610fec565b029392505050565b6000816000190483118215151615610fac57610fac610fec565b500290565b600181811c90821680610fc557607f821691505b60208210811415610fe657634e487b7160e01b600052602260045260246000fd5b50919050565b634e487b7160e01b600052601160045260246000fd5b634e487b7160e01b600052604160045260246000fd5b6001600160e01b03198116811461102e57600080fd5b5056fea264697066735822122099531f0bf9758f57f7cde84891a6285bd05e7f52b56d0309c3f353e49a62aec264736f6c63430008040033",
  "linkReferences": {},
  "deployedLinkReferences": {}
}