{
  "_format": "hh-sol-artifact-1",
  "contractName": "ERC1363Payable",
  "sourceName": "contracts/ERC1363/ERC1363Payable.sol",
  "abi": [
    {
      "inputs": [
        {
          "internalType": "contract IERC1363",
          "name": "acceptedToken_",
          "type": "address"
        }
      ],
      "stateMutability": "nonpayable",
      "type": "constructor"
    },
    {
      "anonymous": false,
      "inputs": [
        {
          "indexed": true,
          "internalType": "address",
          "name": "sender",
          "type": "address"
        },
        {
          "indexed": false,
          "internalType": "uint256",
          "name": "amount",
          "type": "uint256"
        },
        {
          "indexed": false,
          "internalType": "bytes",
          "name": "data",
          "type": "bytes"
        }
      ],
      "name": "TokensApproved",
      "type": "event"
    },
    {
      "anonymous": false,
      "inputs": [
        {
          "indexed": true,
          "internalType": "address",
          "name": "operator",
          "type": "address"
        },
        {
          "indexed": true,
          "internalType": "address",
          "name": "sender",
          "type": "address"
        },
        {
          "indexed": false,
          "internalType": "uint256",
          "name": "amount",
          "type": "uint256"
        },
        {
          "indexed": false,
          "internalType": "bytes",
          "name": "data",
          "type": "bytes"
        }
      ],
      "name": "TokensReceived",
      "type": "event"
    },
    {
      "inputs": [],
      "name": "acceptedToken",
      "outputs": [
        {
          "internalType": "contract IERC1363",
          "name": "",
          "type": "address"
        }
      ],
      "stateMutability": "view",
      "type": "function"
    },
    {
      "inputs": [
        {
          "internalType": "address",
          "name": "sender",
          "type": "address"
        },
        {
          "internalType": "uint256",
          "name": "amount",
          "type": "uint256"
        },
        {
          "internalType": "bytes",
          "name": "data",
          "type": "bytes"
        }
      ],
      "name": "onApprovalReceived",
      "outputs": [
        {
          "internalType": "bytes4",
          "name": "",
          "type": "bytes4"
        }
      ],
      "stateMutability": "nonpayable",
      "type": "function"
    },
    {
      "inputs": [
        {
          "internalType": "address",
          "name": "operator",
          "type": "address"
        },
        {
          "internalType": "address",
          "name": "sender",
          "type": "address"
        },
        {
          "internalType": "uint256",
          "name": "amount",
          "type": "uint256"
        },
        {
          "internalType": "bytes",
          "name": "data",
          "type": "bytes"
        }
      ],
      "name": "onTransferReceived",
      "outputs": [
        {
          "internalType": "bytes4",
          "name": "",
          "type": "bytes4"
        }
      ],
      "stateMutability": "nonpayable",
      "type": "function"
    },
    {
      "inputs": [
        {
          "internalType": "bytes4",
          "name": "interfaceId",
          "type": "bytes4"
        }
      ],
      "name": "supportsInterface",
      "outputs": [
        {
          "internalType": "bool",
          "name": "",
          "type": "bool"
        }
      ],
      "stateMutability": "view",
      "type": "function"
    }
  ],
  "bytecode": "0x608060405234801561001057600080fd5b5060405161067638038061067683398101604081905261002f91610172565b6001600160a01b03811661009f5760405162461bcd60e51b815260206004820152602d60248201527f4552433133363350617961626c653a206163636570746564546f6b656e20697360448201526c207a65726f206164647265737360981b606482015260840160405180910390fd5b6040516301ffc9a760e01b815263b0202a1160e01b60048201526001600160a01b038216906301ffc9a79060240160206040518083038186803b1580156100e557600080fd5b505afa1580156100f9573d6000803e3d6000fd5b505050506040513d601f19601f8201168201806040525081019061011d919061014b565b61012657600080fd5b600080546001600160a01b0319166001600160a01b0392909216919091179055610199565b60006020828403121561015c578081fd5b8151801515811461016b578182fd5b9392505050565b600060208284031215610183578081fd5b81516001600160a01b038116811461016b578182fd5b6104ce806101a86000396000f3fe608060405234801561001057600080fd5b506004361061004c5760003560e01c806301ffc9a714610051578063451c3d80146100795780637b04a2d01461009457806388a7ca5c146100c0575b600080fd5b61006461005f3660046103a5565b6100d3565b60405190151581526020015b60405180910390f35b6000546040516001600160a01b039091168152602001610070565b6100a76100a2366004610350565b610125565b6040516001600160e01b03199091168152602001610070565b6100a76100ce3660046102ea565b6101b5565b60006001600160e01b03198216632229f29760e21b148061010457506001600160e01b031982166307b04a2d60e41b145b8061011f57506301ffc9a760e01b6001600160e01b03198316145b92915050565b600080546001600160a01b0316336001600160a01b0316146101625760405162461bcd60e51b8152600401610159906103d4565b60405180910390fd5b836001600160a01b03167ffc47604465ac19edea172256bab2469184c3a6770701541635cf84241c2f24b4848460405161019d929190610427565b60405180910390a2506307b04a2d60e41b9392505050565b600080546001600160a01b0316336001600160a01b0316146101e95760405162461bcd60e51b8152600401610159906103d4565b836001600160a01b0316856001600160a01b03167f01db5e58326b109682dc160b2e51aa7bf7e8d8ccf74bc242a3c5021793789055858560405161022e929190610427565b60405180910390a350632229f29760e21b949350505050565b80356001600160a01b038116811461025e57600080fd5b919050565b600082601f830112610273578081fd5b813567ffffffffffffffff8082111561028e5761028e610482565b604051601f8301601f19908116603f011681019082821181831017156102b6576102b6610482565b816040528381528660208588010111156102ce578485fd5b8360208701602083013792830160200193909352509392505050565b600080600080608085870312156102ff578384fd5b61030885610247565b935061031660208601610247565b925060408501359150606085013567ffffffffffffffff811115610338578182fd5b61034487828801610263565b91505092959194509250565b600080600060608486031215610364578283fd5b61036d84610247565b925060208401359150604084013567ffffffffffffffff81111561038f578182fd5b61039b86828701610263565b9150509250925092565b6000602082840312156103b6578081fd5b81356001600160e01b0319811681146103cd578182fd5b9392505050565b60208082526033908201527f4552433133363350617961626c653a206163636570746564546f6b656e206973604082015272103737ba1036b2b9b9b0b3b29039b2b73232b960691b606082015260800190565b828152600060206040818401528351806040850152825b8181101561045a5785810183015185820160600152820161043e565b8181111561046b5783606083870101525b50601f01601f191692909201606001949350505050565b634e487b7160e01b600052604160045260246000fdfea26469706673582212206d354add13613852bb0aa1723666498184f23bbc8f1fe8f4260970959428b56564736f6c63430008040033",
  "linkReferences": {},
  "deployedLinkReferences": {}
}